{
  "_format": "hh-sol-artifact-1",
  "contractName": "ExchangeContract",
  "sourceName": "contracts/ExchangeContract.sol",
  "abi": [
    {
      "inputs": [
        {
          "internalType": "address",
          "name": "tokenAddress",
          "type": "address"
        },
        {
          "internalType": "address",
          "name": "treasuryAddress",
          "type": "address"
        }
      ],
      "stateMutability": "nonpayable",
      "type": "constructor"
    },
    {
      "inputs": [
        {
          "internalType": "address",
          "name": "owner",
          "type": "address"
        }
      ],
      "name": "OwnableInvalidOwner",
      "type": "error"
    },
    {
      "inputs": [
        {
          "internalType": "address",
          "name": "account",
          "type": "address"
        }
      ],
      "name": "OwnableUnauthorizedAccount",
      "type": "error"
    },
    {
      "anonymous": false,
      "inputs": [
        {
          "indexed": false,
          "internalType": "string",
          "name": "fromCurrency",
          "type": "string"
        },
        {
          "indexed": false,
          "internalType": "string",
          "name": "toCurrency",
          "type": "string"
        },
        {
          "indexed": false,
          "internalType": "uint256",
          "name": "amountIn",
          "type": "uint256"
        },
        {
          "indexed": false,
          "internalType": "uint256",
          "name": "amountOut",
          "type": "uint256"
        },
        {
          "indexed": false,
          "internalType": "uint256",
          "name": "fee",
          "type": "uint256"
        }
      ],
      "name": "Conversion",
      "type": "event"
    },
    {
      "anonymous": false,
      "inputs": [
        {
          "indexed": true,
          "internalType": "address",
          "name": "previousOwner",
          "type": "address"
        },
        {
          "indexed": true,
          "internalType": "address",
          "name": "newOwner",
          "type": "address"
        }
      ],
      "name": "OwnershipTransferred",
      "type": "event"
    },
    {
      "inputs": [
        {
          "internalType": "string",
          "name": "currency",
          "type": "string"
        },
        {
          "internalType": "uint256",
          "name": "amountInToken",
          "type": "uint256"
        }
      ],
      "name": "convertFromToken",
      "outputs": [
        {
          "internalType": "uint256",
          "name": "",
          "type": "uint256"
        }
      ],
      "stateMutability": "nonpayable",
      "type": "function"
    },
    {
      "inputs": [
        {
          "internalType": "string",
          "name": "currency",
          "type": "string"
        },
        {
          "internalType": "uint256",
          "name": "amountInCurrency",
          "type": "uint256"
        }
      ],
      "name": "convertToToken",
      "outputs": [
        {
          "internalType": "uint256",
          "name": "",
          "type": "uint256"
        }
      ],
      "stateMutability": "nonpayable",
      "type": "function"
    },
    {
      "inputs": [
        {
          "internalType": "string",
          "name": "currency",
          "type": "string"
        }
      ],
      "name": "getExchangeRate",
      "outputs": [
        {
          "internalType": "uint256",
          "name": "",
          "type": "uint256"
        }
      ],
      "stateMutability": "view",
      "type": "function"
    },
    {
      "inputs": [
        {
          "internalType": "string",
          "name": "currency",
          "type": "string"
        }
      ],
      "name": "getSpread",
      "outputs": [
        {
          "internalType": "uint256",
          "name": "",
          "type": "uint256"
        }
      ],
      "stateMutability": "view",
      "type": "function"
    },
    {
      "inputs": [],
      "name": "owner",
      "outputs": [
        {
          "internalType": "address",
          "name": "",
          "type": "address"
        }
      ],
      "stateMutability": "view",
      "type": "function"
    },
    {
      "inputs": [],
      "name": "renounceOwnership",
      "outputs": [],
      "stateMutability": "nonpayable",
      "type": "function"
    },
    {
      "inputs": [
        {
          "internalType": "string",
          "name": "currency",
          "type": "string"
        },
        {
          "internalType": "uint256",
          "name": "rate",
          "type": "uint256"
        }
      ],
      "name": "setExchangeRate",
      "outputs": [],
      "stateMutability": "nonpayable",
      "type": "function"
    },
    {
      "inputs": [
        {
          "internalType": "string",
          "name": "currency",
          "type": "string"
        },
        {
          "internalType": "uint256",
          "name": "spreadBps",
          "type": "uint256"
        }
      ],
      "name": "setSpread",
      "outputs": [],
      "stateMutability": "nonpayable",
      "type": "function"
    },
    {
      "inputs": [],
      "name": "token",
      "outputs": [
        {
          "internalType": "contract IERC20",
          "name": "",
          "type": "address"
        }
      ],
      "stateMutability": "view",
      "type": "function"
    },
    {
      "inputs": [
        {
          "internalType": "address",
          "name": "newOwner",
          "type": "address"
        }
      ],
      "name": "transferOwnership",
      "outputs": [],
      "stateMutability": "nonpayable",
      "type": "function"
    },
    {
      "inputs": [],
      "name": "treasury",
      "outputs": [
        {
          "internalType": "contract TreasuryContract",
          "name": "",
          "type": "address"
        }
      ],
      "stateMutability": "view",
      "type": "function"
    }
  ],
  "bytecode": "0x608060405234801561001057600080fd5b50604051610c3c380380610c3c83398101604081905261002f916100fc565b338061005557604051631e4fbdf760e01b81526000600482015260240160405180910390fd5b61005e81610090565b50600380546001600160a01b039384166001600160a01b0319918216179091556004805492909316911617905561012f565b600080546001600160a01b038381166001600160a01b0319831681178455604051919092169283917f8be0079c531659141344cd1fd0a4f28419497f9722a3daafe3b4186f6b6457e09190a35050565b80516001600160a01b03811681146100f757600080fd5b919050565b6000806040838503121561010f57600080fd5b610118836100e0565b9150610126602084016100e0565b90509250929050565b610afe8061013e6000396000f3fe608060405234801561001057600080fd5b50600436106100a95760003560e01c8063715018a611610071578063715018a61461013a5780638da5cb5b14610142578063cae73fe814610153578063f2fde38b14610166578063f4b5431414610179578063fc0c546a1461018c57600080fd5b80630c80246a146100ae57806334f397e5146100c35780633ec1504b146100e9578063420195ba146100fc57806361d027b31461010f575b600080fd5b6100c16100bc36600461089b565b61019f565b005b6100d66100d13660046108e0565b610219565b6040519081526020015b60405180910390f35b6100d66100f736600461089b565b610241565b6100c161010a36600461089b565b610481565b600454610122906001600160a01b031681565b6040516001600160a01b0390911681526020016100e0565b6100c16104ec565b6000546001600160a01b0316610122565b6100d661016136600461089b565b610500565b6100c161017436600461091d565b61072b565b6100d66101873660046108e0565b610769565b600354610122906001600160a01b031681565b6101a761077b565b600081116101f45760405162461bcd60e51b815260206004820152601560248201527452617465206d75737420626520706f73697469766560581b60448201526064015b60405180910390fd5b806001836040516102059190610971565b908152604051908190036020019020555050565b600060028260405161022b9190610971565b9081526020016040518091039020549050919050565b6000806001846040516102549190610971565b9081526020016040518091039020549050600081116102aa5760405162461bcd60e51b815260206004820152601260248201527152617465206e6f7420617661696c61626c6560701b60448201526064016101eb565b60006002856040516102bc9190610971565b9081526040519081900360200190205490506000670de0b6b3a76400006102e384876109a3565b6102ed91906109ba565b905060006127106102fe84846109a3565b61030891906109ba565b9050600061031682846109dc565b6003546004805460405163095ea7b360e01b81526001600160a01b03918216928101929092526024820186905292935091169063095ea7b3906044016020604051808303816000875af1158015610371573d6000803e3d6000fd5b505050506040513d601f19601f8201168201806040525081019061039591906109ef565b6103d25760405162461bcd60e51b815260206004820152600e60248201526d105c1c1c9bdd994819985a5b195960921b60448201526064016101eb565b6004805460405163a71532cd60e01b81523392810192909252602482018490526001600160a01b03169063a71532cd90604401600060405180830381600087803b15801561041f57600080fd5b505af1158015610433573d6000803e3d6000fd5b505050507f26a2ccb42c0940b95c7ad4bd5631000de7e2c1061d0bfacde72efdf806dc0adc8888838560405161046c9493929190610a3d565b60405180910390a19450505050505b92915050565b61048961077b565b6103e88111156104db5760405162461bcd60e51b815260206004820152601960248201527f53707265616420746f6f206869676820286d617820313025290000000000000060448201526064016101eb565b806002836040516102059190610971565b6104f461077b565b6104fe60006107a8565b565b6000806001846040516105139190610971565b9081526020016040518091039020549050600081116105695760405162461bcd60e51b815260206004820152601260248201527152617465206e6f7420617661696c61626c6560701b60448201526064016101eb565b600060028560405161057b9190610971565b9081526040519081900360200190205490506000826105a286670de0b6b3a76400006109a3565b6105ac91906109ba565b905060006127106105bd84846109a3565b6105c791906109ba565b905060006105d582846109dc565b6003546004805460405163095ea7b360e01b81526001600160a01b03918216928101929092526024820186905292935091169063095ea7b3906044016020604051808303816000875af1158015610630573d6000803e3d6000fd5b505050506040513d601f19601f8201168201806040525081019061065491906109ef565b6106915760405162461bcd60e51b815260206004820152600e60248201526d105c1c1c9bdd994819985a5b195960921b60448201526064016101eb565b6004805460405163a71532cd60e01b81523392810192909252602482018490526001600160a01b03169063a71532cd90604401600060405180830381600087803b1580156106de57600080fd5b505af11580156106f2573d6000803e3d6000fd5b505050507f26a2ccb42c0940b95c7ad4bd5631000de7e2c1061d0bfacde72efdf806dc0adc8888838560405161046c9493929190610a91565b61073361077b565b6001600160a01b03811661075d57604051631e4fbdf760e01b8152600060048201526024016101eb565b610766816107a8565b50565b600060018260405161022b9190610971565b6000546001600160a01b031633146104fe5760405163118cdaa760e01b81523360048201526024016101eb565b600080546001600160a01b038381166001600160a01b0319831681178455604051919092169283917f8be0079c531659141344cd1fd0a4f28419497f9722a3daafe3b4186f6b6457e09190a35050565b634e487b7160e01b600052604160045260246000fd5b600082601f83011261081f57600080fd5b813567ffffffffffffffff8082111561083a5761083a6107f8565b604051601f8301601f19908116603f01168101908282118183101715610862576108626107f8565b8160405283815286602085880101111561087b57600080fd5b836020870160208301376000602085830101528094505050505092915050565b600080604083850312156108ae57600080fd5b823567ffffffffffffffff8111156108c557600080fd5b6108d18582860161080e565b95602094909401359450505050565b6000602082840312156108f257600080fd5b813567ffffffffffffffff81111561090957600080fd5b6109158482850161080e565b949350505050565b60006020828403121561092f57600080fd5b81356001600160a01b038116811461094657600080fd5b9392505050565b60005b83811015610968578181015183820152602001610950565b50506000910152565b6000825161098381846020870161094d565b9190910192915050565b634e487b7160e01b600052601160045260246000fd5b808202811582820484141761047b5761047b61098d565b6000826109d757634e487b7160e01b600052601260045260246000fd5b500490565b8181038181111561047b5761047b61098d565b600060208284031215610a0157600080fd5b8151801515811461094657600080fd5b60008151808452610a2981602086016020860161094d565b601f01601f19169290920160200192915050565b60a081526000610a5060a0830187610a11565b8281036020840152610a748160058152642a27a5a2a760d91b602082015260400190565b604084019690965250506060810192909252608090910152919050565b60a081526000610ab660a0830160058152642a27a5a2a760d91b602082015260400190565b8281036020840152610a748188610a1156fea2646970667358221220275d9c5fab417893e129ac757a9e9e1027adf37d7ef254f23c2c6668242ccc2764736f6c63430008140033",
  "linkReferences": {},
  "deployedLinkReferences": {}
}